:0C012A000A083F065B4F666D7D077F6F83
:10010000EF4E6010007D027CC7DCFEDDFCEF1F704F
:04011000EF1E80EC72
:0101140022C8
:04008F007D027C0072
:10009300EF14B4080050549000A875F003A4C5836E
:1000A30025F0C583730200C00200C40200CC020025
:1000B300D00200D80200DC0200E40200E8D2A280F1
:1000C30002C2A2D2A3D2A48022D2A28002C2A2C21E
:1000D300A3D2A48016D2A28002C2A2D2A3C2A480B9
:1000E3000AD2A28002C2A2C2A3C2A474082DF8E657
:0D00F300F5807F017E00120100E4F58022FF
:100115007F0112008F7F0212008F7D027C007F031A
:0501250012009380EBC5
:03000000020003F8
:0C000300787FE4F6D8FD75811102004AF8
:10000F00020115E493A3F8E493A34003F68001F2F1
:10001F0008DFF48029E493A3F85407240CC8C333F2
:10002F00C4540F4420C8834004F456800146F6DFC1
:10003F00E4800B010204081020408090012AE47E26
:10004F00019360BCA3FF543F30E509541FFEE493B6
:10005F00A360010ECF54C025E060A840B8E493A37D
:10006F00FAE493A3F8E493A3C8C582C8CAC583CAA8
:10007F00F0A3C8C582C8CAC583CADFE9DEE780BE60
:0101360000C8
:00000001FF
