:1009920020200020202D20202D20200020203A2061
:0509A200203A202000B6
:1006260012050DE511FB3395E0FA750C027D017F8D
:1006360001120948E512FB3395E0FA750C027D04B8
:100646007F01120948E513FB3395E0FA750C027D2C
:10065600077F01120948E514FB3395E0FA750C0291
:100666007D017F02120948E515FB3395E0FA750C0A
:10067600027D047F02120948E516FB3395E0FA7500
:090686000C027D077F0202094805
:10000E00E524B4020B0521E52175F0068485F02167
:10001E00E524640360030200E874112521F806D379
:10002E00E511648094E34003E4F511D3E512648096
:10003E00948C4003751201E512640C6023E5126482
:10004E000A601DE51264086017E51264076011E589
:10005E00126405600BE51264036005E512B4010B32
:10006E00D3E5136480949F404D8048E512640B6085
:10007E0011E5126409600BE51264066005E512B421
:10008E00040BD3E5136480949E402B8026E512B4B6
:10009E000224E51175F004120457AFF0EF700BD384
:1000AE00E5136480949D400E8009D3E5136480941B
:1000BE009C4003751301D3E514648094974003E4C8
:1000CE00F514D3E515648094BB4003E4F515D3E530
:1000DE0016648094BB4003E4F516E52464046003C3
:1000EE000201E374112521F816C3E5116480948092
:1000FE005003751163C3E512648094815003751229
:10010E000CE512640C6023E512640A601DE51264AE
:10011E00086017E51264076011E5126405600BE5CF
:10012E001264036005E512B40117C3E513648094ED
:10013E0081500375131FD3E5136480949F40728022
:10014E006DE512640B6011E5126409600BE5126433
:10015E00066005E512B40417C3E51364809481505C
:10016E000375131ED3E5136480949E4044803FE5CF
:10017E00126402703CE51175F004120457AFF0EFF3
:10018E007017C3E51364809481500375131DD3E576
:10019E00136480949D401A8015C3E5136480948186
:1001AE00500375131CD3E5136480949C40037513A0
:1001BE0001C3E514648094805003751417C3E515CC
:1001CE0064809480500375153BC3E516648094805B
:1001DE00500375163BE523B40113E521700F7BFF29
:1001EE007A0979927D017F011209078011E511FBD1
:1001FE003395E0FA750C027D017F01120948E52363
:10020E00B40114E521B4010F7BFF7A0979927D04C4
:10021E007F011209078011E512FB3395E0FA750C88
:10022E00027D047F01120948E523B40114E521B4CF
:10023E00020F7BFF7A0979927D077F0112090780F1
:10024E0011E513FB3395E0FA750C027D077F011261
:10025E000948E523B40114E521B4030F7BFF7A09A5
:10026E0079927D017F021209078011E514FB339507
:10027E00E0FA750C027D017F02120948E523B401F4
:10028E0014E521B4040F7BFF7A0979927D047F0275
:10029E001209078011E515FB3395E0FA750C027D06
:1002AE00047F02120948E523B40112E521B4050DBD
:1002BE007BFF7A0979927D077F02020907E516FB1B
:0F02CE003395E0FA750C027D077F021209482272
:10074C001209BC1200037BFF7A0979957D017F01A8
:10075C001209077BFF7A09799E7D017F0212090736
:10076C001202DD12096512068F8F24E524B40114E0
:10077C00E5227005752201800BE522B40106E4F533
:10078C00221202DDE5221460080470DA12062680BB
:06079C00D512000E80D012
:03000B0002082ABE
:09082A00C0E0C0D075D000C00789
:10083300758A18758CFC0520E5207002051FC3948A
:10084300F4E51F94014012751F00752000E5237025
:09085300047F0180027F008F2365
:07085C00D007D0D0D0E0323C
:0909DF000711130B100C3B370645
:05000300C2B5C2B622E7
:0506F0002DFDEE3CFCB5
:0606F5008C088D09AB0723
:1006FB00D2B5E4FD7E007401A805088005C333CE96
:10070B0033CED8F9FFEBF582EF558224FF92B4D2AA
:10071B00B6C2B60DBD08DDE4FD7E007401A8050868
:10072B008005C333CE33CED8F9FFE5085EFEE5096D
:10073B005F4E24FF92B4D2B6C2B60DBD08DBC2B574
:01074B00228B
:0207A200AD07A1
:1007A400E4F9430501D2B5FB7E007401A803088077
:1007B40005C333CE33CED8F9FFEDF582EF5582244D
:1007C400FF92B4C2B6D2B60BBB08DDE4FBD2B6C20C
:1007D400B630B40DA8037401088002C333D8FC42B8
:0B07E400010BBB08E8C2B5C2B4AF01B6
:0107EF0022E7
:1002DD00E4FDFC7F8E1206F5E51175F00A12045748
:1002ED00FF3395E0FEEFC4F8540FC868FFEEC45419
:1002FD00F048FEE51175F00A120457ADF0ED339597
:10030D00E0FCEF7F8C1206F0E51275F00A1204572F
:10031D00FF3395E0FEEFC4F8540FC868FFEEC454E8
:10032D00F048FEE51275F00A120457ADF0ED339565
:10033D00E0FCEF7F881206F0E51375F00A12045702
:10034D00FF3395E0FEEFC4F8540FC868FFEEC454B8
:10035D00F048FEE51375F00A120457ADF0ED339534
:10036D00E0FCEF2DFDEE3CFC7F861206F5E51475E5
:10037D00F00A120457FF3395E0FEEFC4F8540FC88E
:10038D0068FFEEC454F048FEE51475F00A120457E8
:10039D00ADF0ED3395E0FCEF2DFDEE3CFC7F8412CE
:1003AD0006F5E51575F00A120457FF3395E0FEEFDB
:1003BD00C4F8540FC868FFEEC454F048FEE5157537
:1003CD00F00A120457ADF0ED3395E0FCEF2DFDEE84
:1003DD003CFC7F821206F5E51675F00A120457FFF4
:1003ED003395E0FEEFC4F8540FC868FFEEC454F027
:1003FD0048FEE51675F00A120457ADF0ED3395E0A1
:10040D00FCEF2DFDEE3CFC7F801206F5E51775F037
:10041D000A120457FF3395E0FEEFC4F8540FC86875
:10042D00FFEEC454F048FEE51775F00A120457ADFF
:10043D00F0ED3395E0FCEF2DFDEE3CFC7F8A1206CE
:0A044D00F57D807C007F8E0206F52D
:10050D007F8C1207A2EFC4540F75F00AA4FEEF54AE
:10051D000F2EF5117F881207A2EFC4540F75F00A44
:10052D00A4FEEF540F2EF5127F861207A2EFC454CE
:10053D000F75F00AA4FEEF540F2EF5137F841207EA
:10054D00A2EFC4540F75F00AA4FEEF540F2EF5144C
:10055D007F821207A2EFC4540F75F00AA4FEEF5468
:10056D000F2EF5157F801207A2EFC4540F75F00AF8
:10057D00A4FEEF540F2EF5167F8A1207A2EFC45476
:0C058D000F75F00AA4FEEF540F2EF517B6
:01059900223F
:0609D000C2A58F80D2A732
:0809D6007F027EEFDEFEDFFC74
:0109DE0022F6
:0A09E900C2A61209D0C2A70209D667
:10092A00CFCDCFCECCCE1204B87C007D0A1204B84B
:04093A00ED2430FF79
:0A093E00D2A61209D0C2A70209D602
:10097C00AE07BE0104ED148006BE0209ED243F440F
:06098C0080FF1209E922C0
:1009BC007F381209E97F0C1209E97F061209E97FD9
:0409CC00010209E932
:0A09F300AC0312097CAF0402093EB8
:060907008B088A09890A31
:10090D0012097CE4FDAB08AA09A90A8D8275830042
:0C091D00120479FF600612093E0D80E90B
:0109290022AB
:0C08D4007F0AEA24FFFDE434FFFC7E00F4
:0808E0008E0D8F0E8C0F8D10A0
:1008E8007F017E00E4FBEBC39510E50F6480F8748C
:0E08F8008098500AAC0DAD0E1204A60B80E8DD
:0109060022CE
:040948008A0A8B0B81
:10094C0012097CAA0CEAD39400400D1208D4AC0A0C
:08095C00AD0B12092A1A80ED0F
:010964002270
:1007F00012097CC3EA64809480400B7F2B12093E6F
:100800008A1D8B1E800E7F2D12093EC3E49BF51EB0
:10081000E49AF51DAA1CEAD39400400D1208D4AC4A
:090820001DAD1E12092A1A80ED1B
:0108290022AC
:040863008A278B282D
:1008670012097CAA29EAD3940040297F101208D6DE
:10087700AC27AD28CFCDCFCECCCE1204B8EF540FD6
:10088700FEC3940AEE5004243080022437FF120975
:040897003E1A80D1B4
:01089B00223A
:04089C008A2C8B2DEA
:1008A00012097CAA2EEAD394004028EA24FFFDE432
:1008B00034FFFC7F027E001208E0AC2CAD2DCFCDC2
:1008C000CFCECCCE1204B8EF54012430FF12093E33
:0308D0001A80D2B9
:0108D3002202
:100965005389F0438901758A66758CFCC28DD28CDA
:07097500D2A9D2AFC2B922E2
:10068F00E4F50820B1137F14FE1209A730B1FD7FE6
:10069F00147E001209A775080120B0147F147E0084
:1006AF001209A730B0FD7F147E001209A77508024A
:1006BF0020B2147F147E001209A730B2FD7F147E82
:1006CF00001209A775080320B3147F147E001209C6
:1006DF00A730B3FD7F147E001209A7750804AF0879
:0106EF0022E8
:1009A700EF4E6010007D027CC7DCFEDDFCEF1F70A0
:0409B700EF1E80ECC3
:0109BB002219
:0300000002059A5C
:0C059A00787FE4F6D8FD75812E0205E1A3
:10045700C2D530F707B2D563F0FF05F030E70CB22D
:10046700D5F4048463F0FF05F080018430D502F4ED
:0204770004225D
:10047900BB010CE58229F582E5833AF583E0225038
:1004890006E92582F8E622BBFE06E92582F8E22282
:0D049900E58229F582E5833AF583E493229C
:1004A600EF8DF0A4A8F0CF8CF0A428CE8DF0A42E6A
:0204B600FE2224
:1004B800BC000BBE0029EF8DF084FFADF022E4CC28
:1004C800F875F008EF2FFFEE33FEEC33FCEE9DECF1
:1004D800984005FCEE9DFE0FD5F0E9E4CEFD22ED37
:1004E800F8F5F0EE8420D21CFEADF075F008EF2F81
:1004F800FFED33FD4007985006D5F0F222C398FD72
:050508000FD5F0EA220E
:1005A60002074CE493A3F8E493A34003F68001F218
:1005B60008DFF48029E493A3F85407240CC8C33356
:1005C600C4540F4420C8834004F456800146F6DF25
:1005D600E4800B01020408102040809009DFE47ECD
:1005E600019360BCA3FF543F30E509541FFEE4931A
:1005F600A360010ECF54C025E060A840B8E493A3E1
:10060600FAE493A3F8E493A3C8C582C8CAC583CA0B
:10061600F0A3C8C582C8CAC583CADFE9DEE780BEC3
:0109E800000E
:00000001FF
