:10051200EF4E6010007D027CC7DCFEDDFCEF1F7039
:04052200EF1E80EC5C
:0105260022B2
:06053B00C2A58F80D2A7CB
:080541007F027EEFDEFEDFFC0D
:01054900228F
:0A055700C2A612053BC2A70205412F
:1004AB00CFCDCFCECCCE1202C97C007D0A1202C9B1
:0404BB00ED2430FFFD
:0A04BF00D2A612053BC2A7020541B8
:1004E600AE07BE0104ED148006BE0209ED243F44AA
:0604F60080FF12055722F1
:100527007F381205577F0C1205577F061205577F34
:040537000102055761
:0A056100AC031204E6AF040204BF6D
:060488008B088A09890AB5
:10048E001204E6E4FDAB08AA09A90A8D8275830061
:0C049E0012028AFF60061204BF0D80E904
:0104AA00222F
:0C0455007F0AEA24FFFDE434FFFC7E0077
:080461008E0D8F0E8C0F8D1023
:100469007F017E00E4FBEBC39510E50F6480F8740F
:0E0479008098500AAC0DAD0E1202B70B80E851
:010487002252
:0404C9008A0A8B0B05
:1004CD001204E6AA0CEAD39400400D120455AC0AAE
:0804DD00AD0B1204AB1A80ED17
:0104E50022F4
:1003AA001204E6C3EA64809480400B7F2B1204BFD8
:1003BA008A168B17800E7F2D1204BFC3E49BF51794
:1003CA00E49AF516AA15EAD39400400D120455AC26
:0903DA0016AD171204AB1A80EDF8
:0103E30022F7
:0403E4008A208B21BF
:1003E8001204E6AA22EAD3940040297F1012045787
:1003F800AC20AD21CFCDCFCECCCE1202C9EF540F59
:10040800FEC3940AEE5004243080022437FF1204FD
:04041800BF1A80D1B6
:01041C0022BD
:04041D008A258B267B
:100421001204E6AA27EAD394004028EA24FFFDE457
:1004310034FFFC7F027E00120461AC25AD26CFCDD6
:10044100CFCECCCE1202C9EF54012430FF1204BF2B
:030451001A80D23C
:010454002285
:1004FC0050617373776F72643A006F6B6B6B6B0048
:06050C006572726F7200BF
:0C054A00021C000002180000021A000051
:1001BE001205277BFF7A0479FC7D017F01120488EA
:1001CE00120003751C008F1DE51D451C60F2D3E562
:1001DE001D940AE51C94005041C3E51B9404E51AD6
:1001EE0094005028AE18AF197C007D0A1202B78E0B
:1001FE00188F19AE1CAF1D1202C9ED2519F519EC99
:10020E003518F518051BE51B7002051A750C04ABA5
:10021E0019AA187D0B7F011204C9E51D640B451C3C
:10022E007036E519B4BB0DE518B404087BFF7A05EA
:10023E00790680067BFF7A05790C7D017F02120418
:10024E0088E4F518F519F51AF51B750C04AB19AA07
:10025E00187D0B7F011204C9E51D640C451C60035B
:10026E000201CEF518F519F51AF51B750C04AB192C
:0C027E00AA187D0B7F011204C90201CEFA
:10000300E4F508F5097590FFC2932097167F14FE57
:100013001205123097FD7F147E0012051275080039
:100023007509012096177F147E001205123096FD84
:100033007F147E00120512750800750905209517B7
:100043007F147E001205123095FD7F147E00120589
:10005300127508007509092094177F147E00120594
:10006300123094FD7F147E00120512750800750985
:100073000D7590FFC2922097177F147E0012051210
:100083003097FD7F147E0012051275080075090272
:100093002096177F147E001205123096FD7F147E82
:1000A300001205127508007509062095177F147E46
:1000B300001205123095FD7F147E0012051275089B
:1000C3000075090A2094177F147E001205123094DC
:1000D300FD7F147E0012051275080075090E7590D8
:1000E300FFC2912097177F147E001205123097FDEF
:1000F3007F147E00120512750800750903209617F8
:100103007F147E001205123096FD7F147E001205C7
:10011300127508007509072095177F147E001205D4
:10012300123095FD7F147E001205127508007509C3
:100133000B2094177F147E001205123094FD7F1458
:100143007E0012051275080075090F7590FFC290A5
:100153002097177F147E001205123097FD7F147EBF
:10016300001205127508007509042096177F147E86
:10017300001205123096FD7F147E001205127508D9
:10018300007509082095177F147E0012051230951B
:10019300FD7F147E0012051275080075090C20946A
:1001A300177F147E001205123094FD7F147E001217
:0A01B3000512750800750910AF0968
:0101BD00221F
:0300000002031EDA
:0C031E00787FE4F6D8FD758127020365A6
:10028A00BB010CE58229F582E5833AF583E0225029
:10029A0006E92582F8E622BBFE06E92582F8E22273
:0D02AA00E58229F582E5833AF583E493228D
:1002B700EF8DF0A4A8F0CF8CF0A428CE8DF0A42E5B
:0202C700FE2215
:1002C900BC000BBE0029EF8DF084FFADF022E4CC19
:1002D900F875F008EF2FFFEE33FEEC33FCEE9DECE2
:1002E900984005FCEE9DFE0FD5F0E9E4CEFD22ED28
:1002F900F8F5F0EE8420D21CFEADF075F008EF2F72
:10030900FFED33FD4007985006D5F0F222C398FD62
:050319000FD5F0EA22FF
:10032A000201BEE493A3F8E493A34003F68001F22A
:10033A0008DFF48029E493A3F85407240CC8C333D4
:10034A00C4540F4420C8834004F456800146F6DFA3
:10035A00E4800B010204081020408090054AE47EE4
:10036A00019360BCA3FF543F30E509541FFEE49398
:10037A00A360010ECF54C025E060A840B8E493A35F
:10038A00FAE493A3F8E493A3C8C582C8CAC583CA8A
:10039A00F0A3C8C582C8CAC583CADFE9DEE780BE42
:0105560000A4
:00000001FF
