:0301AE000112003B
:10015300E4FDFC7F0112008F1200F28F12E51260A2
:10016300F77F647E00120177E512FD7C007F0112A8
:04017300008F80E495
:10019900EF4E6010007D027CC7DCFEDDFCEF1F70B6
:0401A900EF1E80ECD9
:0101AD00222F
:1000F200E4F51320B1137F14FE12019930B1FD7F94
:10010200147E0012019975130120B0147F147E0031
:1001120012019930B0FD7F147E001201997513020D
:1001220020B2147F147E0012019930B2FD7F147E3A
:100132000012019975130320B3147F147E0012017B
:100142009930B3FD7F147E00120199751304AF1329
:01015200228A
:0C01B1000A083F065B4F666D7D077F6FFC
:10008F00EF14B4080050549000A475F003A4C58376
:10009F0025F0C583730200BC0200C00200C8020035
:1000AF00CC0200D40200D80200E00200E4D2A28009
:1000BF0002C2A2D2A3D2A48022D2A28002C2A2C222
:1000CF00A3D2A48016D2A28002C2A2D2A3C2A480BD
:1000DF000AD2A28002C2A2C2A3C2A474082DF8E65B
:0300EF00F5802277
:0501BE00007FE3DFFEFD
:0101C3002219
:04017700AD07AC061E
:10017B00E4FBFAED25E0FFEC33FEC3EB9FEA9E5068
:0D018B000CB2A51201BE0BBB00010A80E6FC
:010198002244
:03000000020003F8
:0C000300787FE4F6D8FD75811302004AF6
:10000F00020153E493A3F8E493A34003F68001F2B3
:10001F0008DFF48029E493A3F85407240CC8C333F2
:10002F00C4540F4420C8834004F456800146F6DFC1
:10003F00E4800B01020408102040809001AEE47EA2
:10004F00019360BCA3FF543F30E509541FFEE493B6
:10005F00A360010ECF54C025E060A840B8E493A37D
:10006F00FAE493A3F8E493A3C8C582C8CAC583CAA8
:10007F00F0A3C8C582C8CAC583CADFE9DEE780BE60
:0101BD000041
:00000001FF
