:0E02D000436C6F636B3A0020203A20203A0006
:1000A2001202AD7BFF7A0279D07D017F0112020D2F
:1000B2007BFF7A0279D77D077F0112020D12026B54
:1000C200E51BFB7A00750C027D077F0112024EE5EB
:1000D2001CFB7A00750C027D0A7F0112024EE51AA2
:0F00E200FB7A00750C027D0D7F0112024E80D15A
:03000B000200F1FF
:0400F100C0E0C0D0DB
:1000F500758A18758CFC0519E51970020518C394E5
:10010500E8E5189403401E751800751900051AE5F1
:100115001A943C4010751A00051CE51C943C4005DA
:05012500751C00051B24
:05012A00D0D0D0E0324E
:10029800EF4E6010007D027CC7DCFEDDFCEF1F70B6
:0402A800EF1E80ECD9
:0102AC00222F
:0602C100C2A58F80D2A748
:0802C7007F027EEFDEFEDFFC8A
:0102CF00220C
:0A02EA00C2A61202C1C2A70202C799
:10023000CFCDCFCECCCE12004D7C007D0A12004D2A
:04024000ED2430FF7A
:0A024400D2A61202C1C2A70202C72F
:10028200AE07BE0104ED148006BE0209ED243F4410
:0602920080FF1202EA22C7
:1002AD007F381202EA7F0C1202EA7F061202EA7F01
:0402BD00010202EA4E
:0A02F400AC03120282AF04020244C0
:06020D008B088A09890A32
:10021300120282E4FDAB08AA09A90A8D8275830044
:0C02230012000EFF60061202440D80E97C
:01022F0022AC
:0C01DA007F0AEA24FFFDE434FFFC7E00F5
:0801E6008E0D8F0E8C0F8D10A1
:1001EE007F017E00E4FBEBC39510E50F6480F8748D
:0E01FE008098500AAC0DAD0E12003B0B80E84D
:01020C0022CF
:04024E008A0A8B0B82
:10025200120282AA0CEAD39400400D1201DAAC0A0F
:08026200AD0B1202301A80ED11
:01026A002271
:10012F00120282C3EA64809480400B7F2B12024438
:10013F008A168B17800E7F2D120244C3E49BF5178E
:10014F00E49AF516AA15EAD39400400D1201DAAC21
:09015F0016AD171202301A80EDF2
:010168002274
:040169008A1F8B203E
:10016D00120282AA21EAD3940040297F101201DCE9
:10017D00AC1FAD20CFCDCFCECCCE12004DEF540F56
:10018D00FEC3940AEE5004243080022437FF12027D
:04019D00441A80D1AF
:0101A100223B
:0401A2008A248B25FB
:1001A600120282AA26EAD394004028EA24FFFDE43C
:1001B60034FFFC7F027E001201E6AC24AD25CFCDD4
:1001C600CFCECCCE12004DEF54012430FF120244A4
:0301D6001A80D2BA
:0101D9002203
:10026B005389F0438901758A66758CFCC28DD28CDB
:07027B00D2A9D2AFC2B922E3
:030000000202DE1B
:0C02DE00787FE4F6D8FD7581260200A2AE
:10000E00BB010CE58229F582E5833AF583E02250A7
:10001E0006E92582F8E622BBFE06E92582F8E222F1
:0D002E00E58229F582E5833AF583E493220B
:10003B00EF8DF0A4A8F0CF8CF0A428CE8DF0A42ED9
:02004B00FE2293
:10004D00BC000BBE0029EF8DF084FFADF022E4CC97
:10005D00F875F008EF2FFFEE33FEEC33FCEE9DEC60
:10006D00984005FCEE9DFE0FD5F0E9E4CEFD22EDA6
:10007D00F8F5F0EE8420D21CFEADF075F008EF2FF0
:10008D00FFED33FD4007985006D5F0F222C398FDE1
:05009D000FD5F0EA227E
:00000001FF
