:10045E00EF4E6010007D027CC7DCFEDDFCEF1F70EE
:04046E00EF1E80EC11
:010472002267
:06048700C2A58F80D2A780
:08048D007F027EEFDEFEDFFCC2
:010495002244
:0A04A100C2A6120487C2A702048D50
:10040D00CFCDCFCECCCE1201FD7C007D0A1201FDE9
:04041D00ED2430FF9B
:0A042100D2A6120487C2A702048DC0
:10044800AE07BE0104ED148006BE0209ED243F4448
:0604580080FF1204A12246
:100473007F381204A17F0C1204A17F061204A17F0E
:04048300010204A1CD
:0A04AB00AC03120448AF0402042160
:0603EA008B088A09890A54
:1003F000120448E4FDAB08AA09A90A8D827583009E
:0C0400001201BEFF60061204210D80E90D
:01040C0022CD
:0C0389007F0AEA24FFFDE434FFFC7E0044
:080395008E0D8F0E8C0F8D10F0
:10039D007F017E00E4FBEBC39510E50F6480F874DC
:0E03AD008098500AAC0DAD0E1201EB0B80E8EB
:0103BB00221F
:04042B008A0A8B0BA3
:10042F00120448AA0CEAD39400400D120389AC0AB7
:08043F00AD0B12040D1A80ED53
:010447002292
:1002DE00120448C3EA64809480400B7F2B120421E1
:1002EE008A168B17800E7F2D120421C3E49BF517FF
:1002FE00E49AF516AA15EAD39400400D120389ACC0
:09030E0016AD1712040D1A80ED62
:0103170022C3
:040318008A1A8B1B97
:10031C00120448AA1CEAD3940040297F1012038BC4
:10032C00AC1AAD1BCFCDCFCECCCE1201FDEF540FFE
:10033C00FEC3940AEE5004243080022437FF1204CA
:04034C00211A80D121
:01035000228A
:040351008A1F8B2054
:10035500120448AA21EAD394004028EA24FFFDE4C8
:1003650034FFFC7F027E00120395AC1FAD20CFCD7C
:10037500CFCECCCE1201FDEF54012430FF12042163
:030385001A80D209
:010388002252
:0B0496004D61747269784B65793A0083
:0404B500022200001F
:1003BC001204737BFF7A0479967D017F011203EAA4
:1003CC001200037522008F23E523452260F2750C81
:0E03DC0002AB23AA227D0B7F0112042B80E2CC
:10000300E4F508F5097590FFC2932097167F14FE57
:1000130012045E3097FD7F147E0012045E750800A3
:100023007509012096177F147E0012045E3096FD39
:100033007F147E0012045E7508007509052095176C
:100043007F147E0012045E3095FD7F147E0012043F
:100053005E7508007509092094177F147E00120449
:100063005E3094FD7F147E0012045E7508007509EE
:100073000D7590FFC2922097177F147E0012045EC5
:100083003097FD7F147E0012045E75080075090227
:100093002096177F147E0012045E3096FD7F147E37
:1000A3000012045E7508007509062095177F147EFB
:1000B3000012045E3095FD7F147E0012045E750805
:1000C3000075090A2094177F147E0012045E309491
:1000D300FD7F147E0012045E75080075090E75908D
:1000E300FFC2912097177F147E0012045E3097FDA4
:1000F3007F147E0012045E750800750903209617AD
:100103007F147E0012045E3096FD7F147E0012047D
:100113005E7508007509072095177F147E00120489
:100123005E3095FD7F147E0012045E75080075092C
:100133000B2094177F147E0012045E3094FD7F140D
:100143007E0012045E75080075090F7590FFC2905A
:100153002097177F147E0012045E3097FD7F147E74
:100163000012045E7508007509042096177F147E3B
:100173000012045E3096FD7F147E0012045E750843
:10018300007509082095177F147E0012045E3095D0
:10019300FD7F147E0012045E75080075090C20941F
:1001A300177F147E0012045E3094FD7F147E0012CC
:0A01B300045E750800750910AF091D
:0101BD00221F
:03000000020252A7
:0C025200787FE4F6D8FD75812302029944
:1001BE00BB010CE58229F582E5833AF583E02250F6
:1001CE0006E92582F8E622BBFE06E92582F8E22240
:0D01DE00E58229F582E5833AF583E493225A
:1001EB00EF8DF0A4A8F0CF8CF0A428CE8DF0A42E28
:0201FB00FE22E2
:1001FD00BC000BBE0029EF8DF084FFADF022E4CCE6
:10020D00F875F008EF2FFFEE33FEEC33FCEE9DECAE
:10021D00984005FCEE9DFE0FD5F0E9E4CEFD22EDF4
:10022D00F8F5F0EE8420D21CFEADF075F008EF2F3E
:10023D00FFED33FD4007985006D5F0F222C398FD2F
:05024D000FD5F0EA22CC
:10025E000203BCE493A3F8E493A34003F68001F2F7
:10026E0008DFF48029E493A3F85407240CC8C333A1
:10027E00C4540F4420C8834004F456800146F6DF70
:10028E00E4800B01020408102040809004B5E47E47
:10029E00019360BCA3FF543F30E509541FFEE49365
:1002AE00A360010ECF54C025E060A840B8E493A32C
:1002BE00FAE493A3F8E493A3C8C582C8CAC583CA57
:1002CE00F0A3C8C582C8CAC583CADFE9DEE780BE0F
:0104B9000042
:00000001FF
