:100092003C42A98585A9423C3C42A18585A1423CBE
:0800A2003C42A58989A5423CFE
:10000300E4F509F50A1200CBE4F508E508250990A3
:10001300009293FD7C00AF081200700508E508C349
:10002300940840E7050AE50AD3940F40DBE4F50A98
:1000330074082509F509D3941040CDE4F50980C867
:1000AA00EF4E6010007D027CC7DCFEDDFCEF1F70A6
:0400BA00EF1E80ECC9
:0100BE00221F
:0500CB00C2B6C2B5221F
:02004300AD0707
:10004500E4FB7E007480A803088006CEA2E713CEE9
:1000550013D8F8FFEDF582EF558224FF92B4D2B69E
:0A006500C2B60BBB08DCD2B5C2B571
:01006F00226E
:10007000AA07AF05120043AF02A8077480088002E8
:10008000C313D8FCF4F5807F017E001200AA7580AE
:02009000FF224D
:030000000200BF3C
:0C00BF00787FE4F6D8FD75810A0200038A
:00000001FF
